:060000000C942A000C9490
:1000060000000C9400000C9400000C9400000C946A
:1000160000000C9400000C9400000C9400000C945A
:1000260000000C9400000C9400000C9400000C944A
:1000360000000C9400000C9400000C9400000C943A
:1000460000000C9400000C9400000C940000F8943E
:10005600EE27ECBBF1E0FBBFEBBFE5BFF8E1F1BD7E
:10006600E1BD8DE0A2E0BB27ED938A95E9F780E03C
:1000760098E0A0E6ED930197E9F7EFE5EDBFE8E03C
:10008600EEBFC0E6D2E00C944800EFEFEABBE7BB58
:1000960015D0EEEFEBBBEFE3E8BB10D0EDEFEBBB1B
:1000A600EBE5E8BB0BD0EBEFEBBBEFE3E8BB06D031
:1000B600EFEFEBBBE7E6E8BBEBCFFFCFE1E0F0E02D
:1000C600FA93EA930C946700E991F991309639F026
:1000D60080ED97E00197F1F7A8953197C9F7089554
:00000001FF
